:100000000C9480000C94A8000C94A8000C94A800F8
:100010000C94A8000C94A8000C94A8000C94BE06A4
:100020000C94A8000C94A8000C94A8000C947D04D7
:100030000C94A8000C94A8000C94A8000C94A800A0
:100040000C9433040C94A8000C9497020C94710245
:100050000C94A8000C94A8000C94A8000C94A80080
:100060000C943E050C94A800490F440C6B0C9B0F9C
:100070009B0F7A0C9B0F9B0F9B0F9B0F490F590FE8
:100080007C0F6610A010041104110411B00FB60FFC
:100090000411BE0FCA0F6610A01004110411041140
:1000A000B51000000000240027002A000000000016
:1000B000250028002B000000000023002600290056
:1000C00004040404040404040202020202020303FE
:1000D0000303030301020408102040800102040806
:1000E0001020010204081020000000080002010096
:1000F000000304070000000000000000EF12DF1200
:1001000011241FBECFEFD8E0DEBFCDBF11E0A0E0CD
:10011000B1E0E8E4F2E302C005900D92A633B10726
:10012000D9F723E0A6E3B1E001C01D92A53CB207D8
:10013000E1F710E0CFE7D0E004C02197FE010E9474
:10014000B716CE37D107C9F70E948D0A0C9417193C
:100150000C940000CF92DF92EF92FF920F931F93C7
:10016000CF93DF936C017A018B01C0E0D0E0CE1514
:10017000DF0589F0D8016D918D01D601ED91FC91DB
:100180000190F081E02DC6010995892B11F47E01C3
:1001900002C02196ECCFC701DF91CF911F910F9143
:1001A000FF90EF90DF90CF900895FC01918D828DAC
:1001B000981761F0828DDF01A80FB11D5D968C91BB
:1001C000928D9F5F9F73928F90E008958FEF9FEFC6
:1001D0000895FC01918D828D981731F0828DE80F82
:1001E000F11D858D90E008958FEF9FEF0895FC013C
:1001F000918D228D892F90E0805C9F4F821B910909
:100200008F739927089580E092E00E94F70021E023
:10021000892B09F420E0822F0895FC01848DDF01F1
:10022000A80FB11DA35ABF4F2C91848D90E0019669
:100230008F739927848FA689B7892C93A089B18958
:100240008C9180648C93938D848D981306C0028862
:10025000F389E02D80818F7D80830895EF92FF9256
:100260000F931F93CF93DF93EC0181E0888F9B8DD9
:100270008C8D981305C0E889F989808185FD24C09B
:10028000F62E0B8D10E00F5F1F4F0F731127E02E1E
:100290008C8DE8120CC00FB607FCFACFE889F989FB
:1002A000808185FFF5CFCE010E940D01F1CF8B8DAE
:1002B000FE01E80FF11DE35AFF4FF0820B8FEA8930
:1002C000FB898081806207C0EE89FF896083E889AD
:1002D000F98980818064808381E090E0DF91CF9113
:1002E0001F910F91FF90EF900895CF93DF93EC0152
:1002F000888D8823C9F0EA89FB89808185FD05C046
:10030000A889B9898C9186FD0FC00FB607FCF5CF7F
:10031000808185FFF2CFA889B9898C9185FFEDCFC7
:10032000CE010E940D01E7CFDF91CF91089580E0CB
:1003300090E0892B29F00E94030181110C940000A8
:100340000895833081F028F4813099F08230A1F053
:1003500008958730A9F08830B9F08430D1F48091C5
:1003600080008F7D03C0809180008F778093800014
:10037000089584B58F7702C084B58F7D84BD0895BC
:100380008091B0008F7703C08091B0008F7D809303
:10039000B000089585ED8093BC008091BC0084FD81
:1003A000FCCF1092C201089540919C01262F30E0AD
:1003B000240F311D21323105DCF42091C20124309B
:1003C000C9F4FC0180E090E0861758F430919C015C
:1003D0002191DC01A658BE4FA30FB11D2C930196AD
:1003E000F3CF80919C01680F60939C0180E0089599
:1003F00081E0089582E0089508958FEF9FEF0895BA
:100400008FEF9FEF08958091790190E0919581950C
:1004100091090895CF93DF9300D0CDB7DEB7CB011C
:10042000642F49835A830E94D4014981842F5A81C1
:10043000952F0F900F90DF91CF910895CF93DF9379
:100440001F92CDB7DEB7698361E0CE0101960E94AD
:10045000D40181E090E00F90DF91CF9108950E9448
:10046000F218EF92FF920F931F93CF93DF93EC015B
:100470007B018A0188819981009729F02A813B813B
:1004800024173507F8F4B8016F5F7F4F0E942818D2
:10049000009759F0998388831B830A832C813D81BF
:1004A000232B81F4FC0110820DC088819981009773
:1004B00011F00E949017198218821D821C821B82E3
:1004C0001A8207C01D830C83B701888199810E941D
:1004D0001019CE01DF91CF911F910F91FF90EF90F6
:1004E00008951F920F920FB60F9211242F933F93EE
:1004F0004F935F936F937F938F939F93AF93BF932C
:10050000EF93FF9380E092E00E940D01FF91EF9145
:10051000BF91AF919F918F917F916F915F914F911B
:100520003F912F910F900FBE0F901F9018951F9223
:100530000F920FB60F9211242F938F939F93EF93E7
:10054000FF93E0911002F09111028081E091160278
:10055000F091170282FD12C09081809119028F5F85
:100560008F7320911A02821751F0E0911902F0E086
:10057000E050FE4F958F8093190201C08081FF915A
:10058000EF919F918F912F910F900FBE0F901F9021
:100590001895CF93DF93282F30E0F901E851FF4FF2
:1005A0008491F901EC52FF4FD491F901E054FF4FCF
:1005B000C491CC2391F081110E94A101EC2FF0E0B5
:1005C000EE0FFF1FEA54FF4FA591B491EC91ED237C
:1005D00081E090E021F480E002C080E090E0DF91D3
:1005E000CF9108951F93CF93DF93282F30E0F90127
:1005F000E851FF4F8491F901EC52FF4FD491F9017A
:10060000E054FF4FC491CC23C9F0162F81110E94F2
:10061000A101EC2FF0E0EE0FFF1FE455FF4FA59175
:10062000B4918FB7F894111105C09C91ED2FE0950E
:10063000E92302C0EC91ED2BEC938FBFDF91CF91BA
:100640001F910895CF93DF9390E0FC01EC52FF4F90
:100650002491FC01E054FF4F8491882361F190E0E4
:10066000880F991FFC01EE55FF4FC591D491FC01F5
:10067000E455FF4FA591B491611109C09FB7F8945B
:100680008881209582238883EC912E230BC06230D1
:1006900061F49FB7F8943881822F809583238883F3
:1006A000EC912E2B2C939FBF06C08FB7F894E88156
:1006B0002E2B28838FBFDF91CF9108951F93CF9367
:1006C000DF93182FEB0161E00E942203209711F4C1
:1006D00060E004C0CF3FD10539F461E0812FDF91A4
:1006E000CF911F910C94F202E12FF0E0E851FF4FFF
:1006F000E491E330F9F048F4E130B9F0E230A1F5EB
:1007000084B5806284BDC8BD34C0E730E9F0E8300C
:1007100019F1E43049F58091800080628093800077
:10072000D0938B00C0938A0024C084B5806884BDB8
:10073000C7BD1FC080918000806880938000D093E7
:100740008900C093880015C08091B00080688093B4
:10075000B000C093B3000DC08091B0008062809360
:10076000B000C093B40005C0C038D1050CF0B5CFBF
:10077000AFCFDF91CF911F9108958E3008F08E504A
:100780008770806480937C0080917A00806480937D
:100790007A0080917A0086FDFCCF809178002091CC
:1007A000790090E0922B08953FB7F8948091EE0184
:1007B0009091EF01A091F001B091F10126B5A89BB5
:1007C00005C02F3F19F00196A11DB11D3FBFBA2FE3
:1007D000A92F982F8827820F911DA11DB11DBC0143
:1007E000CD0142E0660F771F881F991F4A95D1F708
:1007F00008958F929F92AF92BF92CF92DF92EF9225
:10080000FF926B017C010E94D4034B015C01C11477
:10081000D104E104F104F1F00E94D403DC01CB0126
:1008200088199909AA09BB09883E9340A105B10519
:1008300070F321E0C21AD108E108F10888EE880EB1
:1008400083E0981EA11CB11CC114D104E104F10481
:1008500019F7DDCFFF90EF90DF90CF90BF90AF9072
:100860009F908F9008951F920F920FB60F921124B0
:100870002F933F938F939F93AF93BF938091EA0100
:100880009091EB01A091EC01B091ED013091E90163
:1008900023E0230F2D3720F40196A11DB11D05C0C3
:1008A00026E8230F0296A11DB11D2093E901809334
:1008B000EA019093EB01A093EC01B093ED018091DC
:1008C000EE019091EF01A091F001B091F10101963C
:1008D000A11DB11D8093EE019093EF01A093F00153
:1008E000B093F101BF91AF919F918F913F912F9163
:1008F0000F900FBE0F901F9018951F920F920FB67A
:100900000F9211242F933F934F935F936F937F9395
:100910008F939F93AF93BF93EF93FF938091E801E1
:1009200087FF05C010928500109284001BC02091A3
:10093000E801022E000C330B80918F0390E0281702
:10094000390784F48091E801082E000C990BFC0112
:10095000EE0FFF1F8E0F9F1FFC01E559FC4F80819A
:1009600086FD15C08091E8018F5F8093E80120919A
:10097000E801022E000C330B80918F0390E02817C2
:100980003907C4F48091E8018C3064F113C0809180
:10099000E801082E000C990BFC01EE0FFF1F8E0FD3
:1009A0009F1FFC01E559FC4F808160E08F730E941E
:1009B000F202D8CF80918400909185000496803413
:1009C0009C4918F480E49CE905C0809184009091D2
:1009D0008500049690938900809388008FEF809320
:1009E000E8013BC020918400309185008091E801AE
:1009F000082E000C990BFC01EE0FFF1F8E0F9F1F9E
:100A0000FC01E559FC4F81819281820F931F9093E5
:100A10008900809388008091E801082E000C990BD2
:100A2000FC01EE0FFF1F8E0F9F1FFC01E559FC4FCD
:100A3000808186FF12C08091E801082E000C990B7E
:100A4000FC01EE0FFF1F8E0F9F1FFC01E559FC4FAD
:100A5000808161E08F730E94F202FF91EF91BF915C
:100A6000AF919F918F917F916F915F914F913F9146
:100A70002F910F900FBE0F901F9018951F920F92FD
:100A80000FB60F9211242F933F934F935F936F9361
:100A90007F938F939F93AF93BF93EF93FF93809137
:100AA000B900887F803609F49CC068F5883209F463
:100AB0005BC090F4803109F454C038F4882309F401
:100AC000F6C0883009F44DC0F6C0883109F44CC036
:100AD000803209F45DC0EFC0803409F468C048F486
:100AE000803309F455C0883309F0E5C08093C10113
:100AF000D8C0803509F44FC0883509F45DC088340A
:100B000009F0D9C0D6C0883909F4C7C0A8F488371D
:100B100009F467C038F4883609F463C0803709F4F3
:100B200060C0C9C0883809F4B8C0803909F45FC012
:100B3000803809F0C0C05BC0803B09F486C038F43F
:100B4000803A09F466C0883A09F47FC0B4C0803C9A
:100B500009F4A7C0883C09F4A4C0883B09F48AC002
:100B6000AAC08091E70110C09091E6018091E50153
:100B7000981770F5E091E60181E08E0F8093E60111
:100B8000F0E0EB53FE4F80818093BB0085EC86C084
:100B90008093C1018EC0E091E60181E08E0F8093C9
:100BA000E6018091BB00F0E0EB53FE4F8083909113
:100BB000E6018091E5016EC0E091E60181E08E0FD3
:100BC0008093E6018091BB00F0E0EB53FE4F808301
:100BD0008091C40181116DC081E08093C30184EADA
:100BE00061C083E08093C2011092C001CFCF809199
:100BF000C001803208F051C0E091C00181E08E0F49
:100C00008093C0018091BB00F0E0E056FE4F8083EE
:100C1000BDCF85EC8093BC001092C2018091C001D1
:100C2000803230F4E091C001F0E0E056FE4F1082D7
:100C30006091C00170E0E0919E01F0919F0180EA17
:100C400091E009951092C00136C084E08093C20102
:100C500010929D0110929C01E0919A01F0919B01EC
:100C6000099580919C01811105C081E080939C01D0
:100C700010927A01E0919D0181E08E0F80939D0199
:100C8000F0E0E658FE4F80818093BB0090919D017B
:100C900080919C01981708F479CF85E88093BC0077
:100CA0000AC085EC8093BC001092C20104C010926F
:100CB000C1010E94CA01FF91EF91BF91AF919F9135
:100CC0008F917F916F915F914F913F912F910F90F5
:100CD0000FBE0F901F901895682F80E092E00C9443
:100CE0002E01CF92DF92FF920F931F93CF93DF934A
:100CF0001F92CDB7DEB7162FF72E082F82E099830B
:100D00000E946C0685E7C82E81E0D82E412F5F2D0A
:100D1000602F9981792FF601408351836283738319
:100D2000812F0E946C06F60181810E946C06F601FB
:100D300082810E946C06F60183810F90DF91CF9132
:100D40001F910F91FF90DF90CF900C946C06CF9382
:100D5000C82F81E00E946C068C2FCF910C946C06FA
:100D60008FEF0E946C0685E50E946C0642E050E021
:100D700068E271E080E092E00C94AA001F920F926A
:100D80000FB60F9211242F933F934F935F936F935E
:100D90007F938F939F93AF93BF93EF93FF93809134
:100DA0009D020E94C9022091A0023091A1022F5FF2
:100DB0003F4F3093A1022093A00290916A03943692
:100DC00018F095E090939E0290919E029330B9F0B6
:100DD00018F4923039F057C0943059F1953009F435
:100DE0004CC051C081114FC02091A0023091A1028E
:100DF0002436310508F443C010926A031CC08130C8
:100E000009F041C0E0916A0391E09E0F90936A035C
:100E1000F0E02091A0023091A102EE0FFF1FE356F7
:100E2000FD4F368325831092A1021092A00294E018
:100E300021C0811117C0E0916A0391E09E0F909349
:100E40006A03F0E02091A0023091A102EE0FFF1F93
:100E5000E356FD4F368325831092A1021092A00223
:100E600093E008C02091A0023091A10225363105FF
:100E700050F095E090939E0206C0811104C010923C
:100E8000A1021092A00290919F02992329F0811152
:100E900002C02D9A01C02D98FF91EF91BF91AF91A3
:100EA0009F918F917F916F915F914F913F912F9182
:100EB0000F900FBE0F901F901895CF92DF92EF9278
:100EC000FF92CF93DF93EC01072E000C880B990B58
:100ED0000E94BB136B017C0120E030E040E45FE343
:100EE0000E941A1420E030E048E452E40E94DF152A
:100EF0000E945116C617D707D4F020E030E040EA30
:100F00005FE3C701B6010E941A1420E030E048E414
:100F100052E40E94DF1520E030E040E85FE30E94E9
:100F200073150E94511621E06C177D070CF420E028
:100F3000822F90E0DF91CF91FF90EF90DF90CF90E4
:100F40000895CF93DF93EC0188859985009711F080
:100F50000E9490178E8187FD05C060E0DF91CF91E0
:100F60000C942203DF91CF910895CF92DF92EF92FC
:100F7000FF921F93CF93DF93EC017B01142F198213
:100F80001F821E861F86188A198AC90146E0969517
:100F900087954A95E1F7482F43704D87C90154E082
:100FA000969587955A95E1F783708A87B90176956A
:100FB00067957695679563706B87922F93709C8782
:100FC00091E02F3F310511F008F090E09883481729
:100FD00019F084E090E002C083E090E08E9D600113
:100FE0008F9DD00C9E9DD00C1124DD82CC82C60139
:100FF0000E94FB1699878887009741F0A60160E060
:1010000070E00E940019FB82EA8204C01D821C82EB
:101010001B821A821E838981882341F061E0812F1F
:101020000E94220360E0812F0E94F202812F90E053
:10103000FC01E054FF4FE491F0E0EE0FFF1FE45598
:10104000FF4F259134913B8B2A8BFC01EC52FF4FD3
:10105000E491EC8BDF91CF911F91FF90EF90DF90A7
:10106000CF9008950F931F93CF93DF93CDB7DEB743
:1010700029970FB6F894DEBF0FBECDBF8091A203B3
:101080009091A303892B09F4A1C00E94D40300917D
:10109000A8031091A9032091AA033091AB03DC01AE
:1010A000CB01801B910BA20BB30BC297A105B1051D
:1010B00060F3F89480919E0390919F039A838983B3
:1010C000E091A203F091A303DF011196808189874B
:1010D00090919A03E091AC03F091AD038091AE033F
:1010E000992309F42EC09081982B98879081809540
:1010F00089238F838F818C8388E08B8358856F81D0
:1011000049853B812C8189819A81508347FD252F18
:101110003A952083262F39F0441F00C000006083D9
:10112000000000C0F2CF38E04D91608300000197CD
:1011300061F7F093AD03E093AC0349873B832C83C5
:1011400038C09081982B98879081809589238F83D0
:101150008F818E8388E08D8358856F8149853D819D
:101160002E8189819A81508347FD252F00C000C0C0
:10117000208300C000C000C000C000C06083000029
:10118000262F3A9541F0441F000000C000C000C067
:1011900000C000C0E8CF38E04D9100C0608300C0BF
:1011A000019709F7F093AD03E093AC0349873D83C2
:1011B0002E839A83898378940E94D4036093A80332
:1011C0007093A9038093AA039093AB0329960FB65B
:1011D000F894DEBF0FBECDBFDF91CF911F910F916D
:1011E00008958F929F92AF92BF92CF92DF92EF922B
:1011F000FF9220919C0330919D038217930708F082
:1012000052C04B01AA24BB24E82DC52ED62EE72EB2
:10121000FF24FC2D342F2091A103222361F0829E14
:1012200040011124E92DC29E60011124FD2D429F31
:10123000D00111243B2FF090A703E090A403A091CC
:10124000A203B091A303FE1008C0AC01440F551FC8
:10125000840F951F8A0F9B1F14C0880F991F880F3A
:10126000991F8A0F9B1F472F552766277727DC0179
:10127000AF0DB11D222321F0429FA0011124452F63
:101280004C932091A403DC01A20FB11DEC9320919B
:10129000A503DC01A20FB11DFC932091A603FC0164
:1012A000E20FF11D3083FF90EF90DF90CF90BF9061
:1012B000AF909F908F9008958091A00387FD08C004
:1012C00061E00E94220360E08091A0030E94F2028C
:1012D00081E080939B0308956091A103693C21F113
:1012E0002091A2033091A303615031F070E08FEFA1
:1012F00098EC0E94A31602C060E070E0F9014091F2
:101300009E0350919F03CF01821B930B8417950777
:1013100040F44081469FC001479F900D1124919356
:10132000EECF89EC8093A10308958F929F92AF92A4
:10133000BF92CF92DF92EF92FF920F931F93CF93C2
:10134000DF93FC01C081D1812091FE013091FF012A
:10135000C217D3070CF04BC09E01220F331FE09140
:10136000FC01F091FD01E20FF31F80809180C170BC
:10137000DD27F1E0CF27209719F404E610E002C042
:101380000CE91FEF7A015B016C01040F151FB80116
:10139000C4010E945D07892B99F40E0D1F1DB80131
:1013A000C4010E945D07892B71F4B8016E0D7F1D89
:1013B000C4010E945D07892BE9F023E030E005C0FD
:1013C00021E030E002C022E030E0F501808191812F
:1013D0000196821793073CF0F50111821082F60105
:1013E00080819181019691838083CE0105C081E047
:1013F00090E002C08FEF9FEFDF91CF911F910F918F
:10140000FF90EF90DF90CF90BF90AF909F908F9024
:101410000895CF92DF92EF92FF92DC01A03282E03A
:10142000B8070CF03EC0B7FD06C0A53BB1052CF0D7
:10143000A4EBB0E002C0A0E0B0E08091920328E805
:1014400030E06901C81AD10887FDD394CC0CDD1CAB
:10145000CC0CDD1C0D2C000CEE08FF0880919303D2
:1014600028E532E0281B310987FD3395220F331F11
:10147000220F331FA901330F660B770B9A01AB01C3
:101480002C193D094E095F090E94021524EB30E03A
:1014900040E050E00E94D814C20ED31EE41EF51E98
:1014A000D601909191039C3098F58091920348E881
:1014B00050E0481B510987FD5395440F551F440FB9
:1014C000551FA417B5078CF08091930328E532E0EF
:1014D000281B310987FD3395220F331F220F331F3D
:1014E000AD012A173B070CF4A90142505109440FE2
:1014F000551F2FB7F894892F90E0FC01EE0FFF1FC6
:101500008E0F9F1FFC01E559FC4F528341832FBF73
:10151000FF90EF90DF90CF900895CF93DF93CDB7FA
:10152000DEB76F970FB6F894DEBF0FBECDBF7894CD
:1015300084B5826084BD84B5816084BD85B58260D8
:1015400085BD85B5816085BD80916E008160809389
:101550006E001092810080918100826080938100F2
:101560008091810081608093810080918000816002
:10157000809380008091B10084608093B10080915D
:10158000B00081608093B00080917A008460809385
:101590007A0080917A00826080937A0080917A004C
:1015A000816080937A0080917A00806880937A00CD
:1015B0001092C10061E085E00E94220361E086E0B4
:1015C0000E94220361E08AE00E94220361E08BE036
:1015D0000E94220361E08DE00E94220361E089E025
:1015E0000E942203809191038C3008F051C061E089
:1015F00084E00E94220380919103E82FF0E09F0194
:10160000220F331FE20FF31FE559FC4F9081907CAE
:101610009460908310929203109293036CE00E9466
:1016200097161CE0819FB001112440E050E09A0120
:10163000260F371FF901EE0FFF1F2E0F3F1FF90175
:10164000E559FC4F908196FD16C04F5F5F4F4C30BF
:10165000510569F781110FC01092800082E08093DC
:1016600081001092850010928400B19A80916F00E1
:10167000826080936F00E0919103F0E0CF01880FCA
:10168000991FE80FF91FE559FC4F80818064808322
:10169000F89412E01093B0001093B10084E68093A8
:1016A000B3001092B20010937000789410939E02D1
:1016B00010926A0380919D0260E00E94220361E023
:1016C0008CE00E942203E0911002F091110210833D
:1016D000E0910C02F0910D021082E0910E02F09167
:1016E0000F0280E1808310921802E0911402F091C1
:1016F000150286E08083E0911202F091130280814E
:1017000080618083E0911202F091130280818860F1
:101710008083E0911202F0911302808180688083BF
:10172000E0911202F091130280818F7D808364EF3B
:1017300071E080E090E00E94F90322242394312C90
:1017400044244A94542C3201809173019091740185
:101750000196909374018093730120917201121687
:101760004CF48938934134F0109272011092740154
:10177000109273011092710180E092E00E94F700D4
:10178000181619064CF481E08093710180E092E014
:101790000E94D5008093700180917101882309F423
:1017A00037C58091700190916F01853561F4911179
:1017B0000AC080916E018F3FE1F481E080936D015A
:1017C00080936F0116C080936E01992391F0E09190
:1017D0006D01E23019F480936C0107C0E33028F00A
:1017E00090916C01915090936C01F0E0E85CFE4F99
:1017F000808380916D018F5F843318F480936D0135
:1018000004C010926D0110926F0180916F018823C6
:1018100009F4FEC480916C018111FAC480916D01BC
:10182000843008F4F5C410926F0100913B011091CF
:101830003D0190913C01923009F486C318F4913037
:1018400041F0E4C4943009F4B7C4953009F4DCC421
:10185000DDC48FEF0E946C0685E50E946C06802F28
:101860000E946C0681E00E946C06812F0E946C062B
:10187000812F90E0FC01F697ED30F10508F05BC395
:10188000EC5CFF4F0C94B71610913E01123059F0EA
:1018900020F41130A1F480E109C0133031F014308C
:1018A00071F484E103C081E101C085E10E94BD03C0
:1018B000BC01990F880B990B0E94BB1303C060E019
:1018C00070E0CB01212F30E0215031092430310567
:1018D00008F031C30EC310913E01123009F41DC34C
:1018E00020F4113009F417C31CC3133009F00FC3DF
:1018F00088E014C382EA92E09093FD018093FC019A
:1019000080916A0390E09093FF018093FE018091A3
:101910009E02853009F00FC38091A4029091A50228
:10192000885891098D35910588F480916A03843037
:1019300041F48091A6029091A7028097479708F4FE
:1019400083C480916A03843408F065C480916A037B
:101950008A3108F44DC08091A2029091A302843F85
:10196000914068F41092FB011092FA014092F60146
:101970005092F7016092F8017092F90157C080917E
:10198000A4029091A50285974B9790F5E8EAF2E0C2
:1019900082E090E040E050E0BA0120916A0330E03C
:1019A000DC011196A217B30754F4DF0112972D91B1
:1019B0003C91275031092730310508F489C401973B
:1019C000959587959093FB018093FA010C972CF4E1
:1019D0001092FB011092FA010BC04093F601509354
:1019E000F7016093F8017093F90182E090E04CC236
:1019F00080916A038A3108F449C08091A2029091D3
:101A0000A3028032934008F4ADCF8091A40290915C
:101A1000A502C697869708F477C438C04093F601AC
:101A20005093F7016093F8017093F90189E090E019
:101A30002BC220813181255231092B31310508F02B
:101A400073C4440F551F661F771F4160029634967A
:101A500020916A0330E0DC011196A217B3074CF421
:101A6000DF0112972D913C912C5031092B3031051B
:101A700000F30197959587959093FB018093FA0168
:101A80000C9764F61092FB011092FA0180916A03A0
:101A9000823208F44DC08091A4029091A50206976D
:101AA000079708F045C0E8EAF2E082E090E0C12C38
:101AB000D12C76019C012F5F3F4F40916A0350E08B
:101AC00024173507E4F4DF0112974D915C911197CB
:101AD0004E5151094731510508F033C4CC0CDD1C7F
:101AE000EE1CFF1C6894C0F840815181349643502D
:101AF00051094530510510F40296DCCFC901019718
:101B0000959587959093FB018093FA0140972CF46B
:101B10001092FB011092FA010BC0C092F601D09214
:101B2000F701E092F801F092F9018AE090E0ACC18F
:101B300080916A038D3048F48091FE019091FF01FD
:101B4000181619060CF481C08BC03F8A2E8A1A829F
:101B5000198249E753E0BE016F5F7F4FCE01469681
:101B60000E949509892B21F080E090E0DC0167C09C
:101B700049E753E0BE016F5F7F4FCE0146960E945A
:101B80009509019789F749E753E0BE016F5F7F4FE1
:101B9000CE0146960E949509892B31F700E010E0AE
:101BA000812C912C540180916A0390E02E893F8909
:101BB0002817390774F549E753E0BE016F5F7F4F7F
:101BC000CE0146960E9495097C0149E753E0BE018B
:101BD0006F5F7F4FCE0146960E94950921E0E21685
:101BE000F10451F4892B09F0BFCF880C991CAA1C71
:101BF000BB1C689480F80AC0EF2809F0B5CF0197A4
:101C000009F0B2CF880C991CAA1CBB1C0F5F1F4F98
:101C1000CACF1093FB010093FA018092F6019092D3
:101C2000F701A092F801B092F90183E090E090935F
:101C3000F3018093F20181E090E0A0E0B0E0892B15
:101C40008A2B8B2B09F01FC477CF3F8A2E8AE09115
:101C5000FC01F091FD018281938189974E9720F0DC
:101C600080E090E0DC014AC082E090E09F8B8E8BA8
:101C7000848195810B970A9798F723E030E03F8B9A
:101C80002E8B1A8219824CEB51E0BE016F5F7F4FA1
:101C9000CE0146960E949509892B11F74CEB51E035
:101CA000BE016F5F7F4FCE0146960E949509019756
:101CB000B9F600E010E0812C912C54012E893F8967
:101CC0008091FE019091FF01281739070CF446C35B
:101CD0001093FB010093FA018092F6019092F701B4
:101CE000A092F801B092F90184E090E09093F301A2
:101CF0008093F20181E090E0A0E0B0E0892B8A2B94
:101D00008B2B09F0C0C3A090FC01B090FD01F50140
:101D100082819381C6978697F8F4F5018481958135
:101D20004B974597C8F4D50116967501F6ECEF0E62
:101D3000F11C20E030E040E050E060E070E080E046
:101D400090E0CD90DC901197F9E0CF1AD10818E01F
:101D5000C116D10408F453C380916A03823239F466
:101D6000F501828193810A97099708F4AFC3F501C1
:101D700082819381895791098335910508F4C2C303
:101D80002091FE013091FF013B8F2A8F26303105D3
:101D90000CF493C385010A5F1F4F83E090E0998F95
:101DA000888F95ECC92E9DE9D92E9CE1E92E91E80A
:101DB000F92EF801608171813497A080B18080E0B4
:101DC00090E00E94B9136C8F7D8F8E8F9F8FB5012D
:101DD00080E090E00E94B9134B015C012DEC3CECDB
:101DE0004CE45FE30E941A149B01AC016C8D7D8D65
:101DF0008E8D9F8D0E94B41387FD65C32DEC3CEC46
:101E00004CE45FE36C8D7D8D8E8D9F8D0E941A1446
:101E10009B01AC01C501B4010E94B413E82F880FE7
:101E2000FF0BEE27FF0FEE1FFF273196A70196014C
:101E300063E971E080E091E00E9487166F01FF0F77
:101E4000EE08FF08C626D726E826F926288D398D04
:101E50002F5F3F4F398F288F0E5F1F4F8A8D9B8DCD
:101E60002817390709F0A5CFC092F601D092F701E3
:101E7000E092F801F092F901E0E2F0E0F093FB016A
:101E8000E093FA018FEF9FEF9093F3018093F201BB
:101E9000FAC28EE00E94BD0324E630E0DC010E941D
:101EA000BD162FEF33E040E050E00E94D814822F9F
:101EB00040C010913E01123031F0133031F011303A
:101EC00071F48FE003C080E101C081E10E94BD0395
:101ED000BC01990F880B990B0E94BB1303C060E0F3
:101EE00070E0CB01212F30E0215031092330310542
:101EF00010F50E9471061FC010913E01123059F07A
:101F000020F4113071F484E009C0133031F0143042
:101F100041F487E003C082E001C083E00E94C9026F
:101F200001C080E0212F30E02150310924303105FB
:101F300010F40E94A70642E050E068E271E080E001
:101F400092E00E94AA0062C1812F90E0FC01F49708
:101F5000E031F10508F058C1EF5BFF4F0C94B71664
:101F600061E080913E0181114CC14AC161E08091E4
:101F70003E01811101C060E089E044C110913F0140
:101F800080913E0190E00E94090A612F70E080E09C
:101F900090E00FC100913E01C0903F0110914001BF
:101FA000D090410146E050E06BE271E084E993E0BB
:101FB0000E9431028091980390919903892B41F4FA
:101FC0008091980390919903892B09F41DC145C014
:101FD0006BE271E080919403909195030E94071940
:101FE000892B71F7602F70E022E530E04CE0CE01E4
:101FF00001960E94B50785E1FE013196AAE9B3E09A
:1020000001900D928A95E1F7CE0101960E94A107F9
:102010000E945C090E9432080E946C09812E912C5A
:10202000A12CB12CBA2CA92C982C8824AC288D2852
:10203000E12CF12C80919C0390919D03E816F90608
:1020400008F0BECFB501A401C7010E94F1080E94AB
:102050003208FFEFEF1AFF0AEDCF62E371E08091E3
:102060009403909195030E940719892B09F0CCC025
:10207000E02EF12C22E530E04CE0B701CE010196D4
:102080000E94B50785E1FE013196AAE9B3E001900F
:102090000D928A95E1F7CE0101960E94A1070E9458
:1020A0005C090E9432080E946C09412F50E060E0F8
:1020B00070E0762F652F542F44276C294D29C701D6
:1020C00001970E94F1080E9432089EC000913F01D2
:1020D00010E080913E018230B9F050F4813009F077
:1020E00093C0B80185E00E945E0360E070E019C013
:1020F000833089F0843009F087C0B80185E00E9400
:102100005E0360E070E012C060E070E085E00E9475
:102110005E03B8010BC060E070E085E00E945E03E2
:10212000B80186E00E945E03B80116C086E00E94F6
:102130005E0360E070E08AE00E945E03B80111C0B7
:1021400060E070E085E00E945E0360E070E086E0A1
:102150000E945E0360E070E08AE00E945E0360E03F
:1021600070E08BE00E945E034FC080913E018230A0
:1021700069F028F4813009F047C060E00AC083307C
:1021800039F0843009F040C060E008C061E006C06A
:1021900061E08CE00E94F20261E004C08CE00E94E9
:1021A000F20260E08DE00E94F20268EC70E080E0F4
:1021B00090E00E94F90328C060E08DE00E94F202E6
:1021C00060E089E00E94F20280E090E00E94090A4B
:1021D00060E070E085E00E945E0360E070E086E011
:1021E0000E945E0360E070E08AE00E945E0360E0AF
:1021F00070E08BE00E945E0360E08CE00E94F202DF
:1022000060E08DE00E94F2020E94B00610926D0123
:102210000E94970199CA8091A6029091A7028254C8
:1022200091098E9708F092CB80E090E040E050E07A
:10223000BA01FC01E855FD4F208131812950310957
:1022400029303105B0F082CB8091A8029091A9028B
:102250000997099708F075CB1092FB011092FA01CB
:102260004092F6015092F7016092F8017092F901E4
:1022700006C1FC01E655FD4F20813181265131090F
:1022800021313105C0F4440F551F661F771F41608F
:1022900004968038910569F6E0E2F0E0F093FB01E6
:1022A000E093FA014093F6015093F7016093F8012F
:1022B0007093F901E4C02081318126503109273023
:1022C000310508F043CB440F551F661F771FE0CF41
:1022D00020813181235131092F30310540F4440FE1
:1022E000551F661F771F41600296349656CB20819A
:1022F00031812A5031092930310508F079CB440F5A
:10230000551F661F771FF0CF8091A6029091A702FC
:10231000C697869708F0BACBEAEAF2E083E090E04D
:1023200040E050E0BA0194CB208131812C5031093A
:102330002A30310508F0AACB440F551F661F771FBE
:1023400085CB4D915C914C5051094B30510508F0B3
:10235000EFCBCC0CDD1CEE1CFF1CC6CB4CEB51E0D4
:10236000BE016F5F7F4FCE0146960E9495096C01BA
:102370000330110571F04CEB51E0BE016F5F7F4FF0
:10238000CE0146960E9495097C0103301105D9F4CF
:102390000DC04CEB51E0BE016F5F7F4FCE01469602
:1023A0000E949509C816D90631F35ACC4CEB51E07E
:1023B000BE016F5F7F4FCE0146960E949509E816D9
:1023C000F90609F04DCCC114D10459F4EA94EF2870
:1023D00009F046CC880C991CAA1CBB1C689480F898
:1023E0000BC0CA94CD2809F03BCCEF2809F038CCBB
:1023F000880C991CAA1CBB1C0F5F1F4F5FCC129648
:10240000CD90DC90139711E1C11AD108EDE0CE1602
:10241000D10428F501E00E94C41621601496AE157F
:10242000BF0509F08ECC2093F6013093F70140935D
:10243000F8015093F90100E20E94DF162093F401A5
:102440003093F50187E090E09093F3018093F201DF
:1024500080E390E09093FB018093FA0114C0129600
:10246000CD90DC901397F4E0CF1AD10815E0C11697
:10247000D10408F071CC01E00E94C416CFCF309295
:10248000F3012092F2011091F6010091F70183E02F
:102490000E946C061093360100933701812F0E9431
:1024A0006C06809137010E946C06809138010E9471
:1024B0006C06809139010E946C0682E080939E0236
:1024C00010926A0338CDE0E0F0E0B0CC20916A03CE
:1024D000C501820F911D820F911DDC0112978D9114
:1024E0009C910A97099708F042CC1092FB01109238
:1024F000FA014092F6015092F7016092F801709251
:10250000F9015AC080916A03813208F439CCF5018F
:1025100084819581CA97899708F032CC95012A5F0A
:102520003F4F80E090E0DC0143E050E0F901608142
:1025300071816A5071096930710508F021CCF90187
:1025400062817381665171096131710538F5880FB7
:10255000991FAA1FBB1F81604E5F5F4F2C5F3F4FCB
:102560004332510519F795012A5B3F4FF90120814C
:1025700031812A5031092930310508F001CC20E1A0
:1025800030E03093FB012093FA018093F6019093A1
:10259000F701A093F801B093F9010EC0F90162812F
:1025A0007381665071096730710508F0E9CB880FB7
:1025B000991FAA1FBB1FD0CF88E090E065CC809107
:1025C0009403909195030E9490178AE993E00E94EA
:1025D000A1078091AF039091B0030C949017CF9313
:1025E000109203021092020288EE93E0A0E0B0E0A5
:1025F0008093040290930502A0930602B093070211
:102600002AE031E0309301022093000225EC30E013
:1026100030930D0220930C0224EC30E030930F0233
:1026200020930E0220EC30E0309311022093100230
:1026300021EC30E0309313022093120222EC30E0C0
:10264000309315022093140226EC30E030931702E9
:10265000209316021092190210921A0210921B0275
:1026600010921C021092B8031092B7038093B90322
:102670009093BA03A093BB03B093BC038AE191E0AB
:102680009093B6038093B5031092B0031092AF03FA
:102690001092B2031092B1031092B4031092B303DC
:1026A00040E050E06AE271E08FEA93E00E9431027C
:1026B00081E080939A0310929B0310929D031092E5
:1026C0009C0310929F0310929E03CFEFC093A00330
:1026D0001092A1031092A3031092A2038093A4036B
:1026E0001092A50392E09093A6038093A703109203
:1026F000A8031092A9031092AA031092AB031092A0
:1027000095031092940310929703109296031092DF
:1027100099031092980340E050E06AE271E084E986
:1027200093E00E94310280918F038C30A0F491E0FD
:10273000980F90938F038093910390E0FC01EE0F2C
:10274000FF1F8E0F9F1FFC01E559FC4F88EB9BE09C
:102750009283818302C0C09391038FE080939D0296
:1027600010929F02CF9108950E94F61308F481E021
:102770000895E89409C097FB3EF490958095709574
:1027800061957F4F8F4F9F4F9923A9F0F92F96E9BD
:10279000BB279395F695879577956795B795F11132
:1027A000F8CFFAF4BB0F11F460FF1BC06F5F7F4FCF
:1027B0008F4F9F4F16C0882311F096E911C07723E1
:1027C00021F09EE8872F762F05C0662371F096E8EA
:1027D000862F70E060E02AF09A95660F771F881FB9
:1027E000DAF7880F9695879597F90895990F00085D
:1027F000550FAA0BE0E8FEEF16161706E807F907D3
:10280000C0F012161306E407F50798F0621B730B6D
:10281000840B950B39F40A2661F0232B242B252BEE
:1028200021F408950A2609F4A140A6958FEF811D91
:10283000811D08950E942D140C949E140E949014E2
:1028400038F00E94971420F0952311F00C9487140F
:102850000C948D1411240C94D2140E94AF1470F3B4
:10286000959FC1F3950F50E0551F629FF001729F35
:10287000BB27F00DB11D639FAA27F00DB11DAA1F44
:10288000649F6627B00DA11D661F829F2227B00D91
:10289000A11D621F739FB00DA11D621F839FA00D1C
:1028A000611D221F749F3327A00D611D231F849F6C
:1028B000600D211D822F762F6A2F11249F575040C3
:1028C0009AF0F1F088234AF0EE0FFF1FBB1F661F3E
:1028D000771F881F91505040A9F79E3F510580F007
:1028E0000C9487140C94D2145F3FE4F3983ED4F315
:1028F000869577956795B795F795E7959F5FC1F7AB
:10290000FE2B880F911D9695879597F9089597F955
:102910009F6780E870E060E008959FEF80EC089585
:1029200000240A94161617061806090608950024AE
:102930000A9412161306140605060895092E039428
:10294000000C11F4882352F0BB0F40F4BF2B11F49C
:1029500060FF04C06F5F7F4F8F4F9F4F089557FDFB
:102960009058440F551F59F05F3F71F04795880FFD
:1029700097FB991F61F09F3F79F087950895121694
:1029800013061406551FF2CF4695F1DF08C0161640
:1029900017061806991FF1CF8695710561050894F1
:1029A0000895E894BB2766277727CB0197F9089508
:1029B000052E97FB1EF400940E94EF1457FD07D0DC
:1029C0000E94411507FC03D04EF40C94EF1450956F
:1029D0004095309521953F4F4F4F5F4F089590950B
:1029E0008095709561957F4F8F4F9F4F08950E94FE
:1029F0006315A59F900DB49F900DA49F800D911D10
:102A000011240895B7FF0C94F7140E94F714821B49
:102A1000930B08952F923F924F925F926F927F9205
:102A20008F929F92AF92BF92CF92DF92EF92FF92DE
:102A30000F931F93CF93DF93CDB7DEB7CA1BDB0B8A
:102A40000FB6F894DEBF0FBECDBF09942A8839882F
:102A500048885F846E847D848C849B84AA84B98436
:102A6000C884DF80EE80FD800C811B81AA81B98142
:102A7000CE0FD11D0FB6F894DEBF0FBECDBFED0156
:102A80000895A1E21A2EAA1BBB1BFD010DC0AA1FAF
:102A9000BB1FEE1FFF1FA217B307E407F50720F0C7
:102AA000A21BB30BE40BF50B661F771F881F991F42
:102AB0001A9469F760957095809590959B01AC018B
:102AC000BD01CF010895A29FB001B39FC001A39F94
:102AD000700D811D1124911DB29F700D811D112457
:102AE000911D08955058BB27AA270E948A150C945F
:102AF0009E140E94901438F00E94971420F039F42C
:102B00009F3F19F426F40C948D140EF4E095E7FB26
:102B10000C948714E92F0E94AF1458F3BA17620778
:102B200073078407950720F079F4A6F50C94D11467
:102B30000EF4E0950B2EBA2FA02D0B01B9019001D8
:102B40000C01CA01A0011124FF27591B99F0593F1C
:102B500050F4503E68F11A16F040A22F232F342F64
:102B60004427585FF3CF469537952795A795F040B2
:102B70005395C9F77EF41F16BA0B620B730B840BC7
:102B8000BAF09150A1F0FF0FBB1F661F771F881F7F
:102B9000C2F70EC0BA0F621F731F841F48F48795D7
:102BA00077956795B795F7959E3F08F0B0CF9395C9
:102BB000880F08F09927EE0F9795879508950E9442
:102BC000F3150C949E140E94971458F00E949014D0
:102BD00040F029F45F3F29F00C94871451110C94B4
:102BE000D2140C948D140E94AF1468F39923B1F39E
:102BF000552391F3951B550BBB27AA276217730723
:102C0000840738F09F5F5F4F220F331F441FAA1FB6
:102C1000A9F335D00E2E3AF0E0E832D09150504072
:102C2000E695001CCAF72BD0FE2F29D0660F771F20
:102C3000881FBB1F261737074807AB07B0E809F006
:102C4000BB0B802DBF01FF2793585F4F3AF09E3F8B
:102C5000510578F00C9487140C94D2145F3FE4F380
:102C6000983ED4F3869577956795B795F7959F5FCE
:102C7000C9F7880F911D9695879597F90895E1E01A
:102C8000660F771F881FBB1F621773078407BA0779
:102C900020F0621B730B840BBA0BEE1F88F7E095D4
:102CA00008950E9458166894B1110C94D214089596
:102CB0000E94B71488F09F5798F0B92F9927B75101
:102CC000B0F0E1F0660F771F881F991F1AF0BA95D0
:102CD000C9F714C0B13091F00E94D114B1E0089549
:102CE0000C94D114672F782F8827B85F39F0B93F3B
:102CF000CCF3869577956795B395D9F73EF4909583
:102D00008095709561957F4F8F4F9F4F0895DB01A0
:102D10008F939F930E94F714BF91AF91A29F800D54
:102D2000911DA39F900DB29F900D11240895991BA2
:102D300079E004C0991F961708F0961B881F7A95B2
:102D4000C9F780950895AA1BBB1B51E107C0AA1FB4
:102D5000BB1FA617B70710F0A61BB70B881F991F3C
:102D60005A95A9F780959095BC01CD010895EE0F75
:102D7000FF1F0590F491E02D09940E946315B7FFA1
:102D80000895821B930B08950F93083090F0982FAD
:102D9000872F762F652F542F432F322F222708504D
:102DA000F4CF220F331F441F551F661F771F881F44
:102DB000991F0A95B2F70F91089597FB10F8169492
:102DC00000080F93083098F00850232F342F452F18
:102DD000562F672F782F892F902DF4CF0594979534
:102DE00087957795679557954795379527950A95D0
:102DF000AAF70F910895CF93DF938230910510F4D5
:102E000082E090E0E091C303F091C40320E030E061
:102E1000C0E0D0E0309711F1408151814817590747
:102E2000C0F04817590761F482819381209719F007
:102E30009B838A832BC09093C4038093C30326C0D3
:102E40002115310519F04217530718F49A01BE01F4
:102E5000DF01EF010280F381E02DDCCF2115310588
:102E600009F1281B390B2430310590F412968D910D
:102E70009C9113976115710521F0FB019383828367
:102E800004C09093C4038093C303FD01329644C0F1
:102E9000FD01E20FF31F81939193225031092D938D
:102EA0003C933AC02091C1033091C203232B41F4DB
:102EB00020910201309103013093C2032093C1039A
:102EC00020910001309101012115310541F42DB708
:102ED0003EB74091040150910501241B350BE09150
:102EE000C103F091C203E217F307A0F42E1B3F0BBE
:102EF0002817390778F0AC014E5F5F4F241735076C
:102F000048F04E0F5F1F5093C2034093C10381935B
:102F1000919302C0E0E0F0E0CF01DF91CF910895FE
:102F20000F931F93CF93DF93009709F48CC0FC019C
:102F30003297138212820091C3031091C4030115CA
:102F4000110581F420813181820F931F2091C103EB
:102F50003091C2032817390779F5F093C203E09343
:102F6000C10371C0D80140E050E0AE17BF0750F474
:102F700012962D913C911397AD012115310509F160
:102F8000D901F3CF9D01DA013383228360817181FE
:102F9000860F971F8217930769F4EC012881398106
:102FA000260F371F2E5F3F4F318320838A819B81FD
:102FB00093838283452B29F4F093C403E093C303E6
:102FC00042C01396FC93EE931297ED0149915991EB
:102FD0009E01240F351FE217F30771F48081918160
:102FE000840F951F029611969C938E9382819381F4
:102FF00013969C938E931297E0E0F0E0D80112961E
:103000008D919C911397009719F0F8018C01F6CFE0
:103010008D919C9198012E5F3F4F820F931F2091BD
:10302000C1033091C2032817390769F4309729F496
:103030001092C4031092C30302C013821282109331
:10304000C2030093C103DF91CF911F910F910895A7
:10305000A0E0B0E0EEE2F8E10C940E15EC01009770
:1030600021F4CB010E94FB16B8C0FC01E60FF71F4C
:103070009C0122503109E217F30708F4ACC0D901D2
:103080000D911C91119706171707B0F00530110527
:1030900008F49FC0C80104978617970708F499C0E1
:1030A00002501109061B170B019311936D937C932A
:1030B000CF010E9490178DC05B01A01AB10A4C018C
:1030C000800E911EA091C303B091C40340E050E074
:1030D000E12CF12C109709F44AC0A815B905D1F5D7
:1030E0006D907C901197630182E0C80ED11CCA14C8
:1030F000DB0480F1A3014A195B096A0182E0C80E72
:10310000D11C1296BC9012971396AC91B5E0CB16D9
:10311000D10440F0B282A38351834083D9016D93DF
:103120007C930AC00E5F1F4FC301800F911FF901EE
:1031300091838083EB2DFA2FE114F10431F0D70154
:103140001396FC93EE93129744C0F093C403E0935C
:10315000C3033FC08D919C9111974817590708F4FC
:10316000AC017D0112960D90BC91A02DB3CF809142
:10317000C1039091C20388159905E1F446175707DA
:10318000C8F48091000190910101009741F48DB73E
:103190009EB74091040150910501841B950BE817DF
:1031A000F907C8F4F093C203E093C103F9017183F6
:1031B00060830FC0CB010E94FB167C01009759F081
:1031C000A801BE010E94F718CE010E949017C70106
:1031D00004C0CE0102C080E090E0CDB7DEB7EEE0E3
:1031E0000C942A1581E090E0F8940C941719FB01D7
:1031F000DC0102C001900D9241505040D8F7089573
:10320000DC0101C06D9341505040E0F70895FB018F
:10321000DC018D91019080190110D9F3990B08956B
:10322000FB01DC0101900D920020E1F7089510E010
:10323000CFE7D0E004C0FE010E94B7162196C03847
:08324000D107C9F7F894FFCF94
:103248000000C5038000000000002E01AA00F7005E
:10325800D500E9007501000000001E020A02030201
:103268000002FD01FC010F000D0A0053657269653B
:063278007300736F6C008F
:00000001FF
